{
  "contractName": "BankTransfer",
  "abi": [
    {
      "inputs": [
        {
          "internalType": "uint256",
          "name": "_bankBalance",
          "type": "uint256"
        }
      ],
      "payable": false,
      "stateMutability": "nonpayable",
      "type": "constructor"
    },
    {
      "constant": true,
      "inputs": [
        {
          "internalType": "string",
          "name": "",
          "type": "string"
        }
      ],
      "name": "bankAccounts",
      "outputs": [
        {
          "internalType": "string",
          "name": "accountNumber",
          "type": "string"
        },
        {
          "internalType": "string",
          "name": "ownerPhoneNumber",
          "type": "string"
        },
        {
          "internalType": "uint256",
          "name": "balance",
          "type": "uint256"
        },
        {
          "internalType": "address",
          "name": "accountAddress",
          "type": "address"
        }
      ],
      "payable": false,
      "stateMutability": "view",
      "type": "function"
    },
    {
      "constant": true,
      "inputs": [],
      "name": "bankBalance",
      "outputs": [
        {
          "internalType": "uint256",
          "name": "",
          "type": "uint256"
        }
      ],
      "payable": false,
      "stateMutability": "view",
      "type": "function"
    },
    {
      "constant": true,
      "inputs": [],
      "name": "owner",
      "outputs": [
        {
          "internalType": "address",
          "name": "",
          "type": "address"
        }
      ],
      "payable": false,
      "stateMutability": "view",
      "type": "function"
    },
    {
      "constant": true,
      "inputs": [
        {
          "internalType": "string",
          "name": "",
          "type": "string"
        }
      ],
      "name": "transactions",
      "outputs": [
        {
          "internalType": "string",
          "name": "code",
          "type": "string"
        },
        {
          "internalType": "string",
          "name": "fromAccountNumber",
          "type": "string"
        },
        {
          "internalType": "string",
          "name": "toAccountNumber",
          "type": "string"
        },
        {
          "internalType": "uint256",
          "name": "amount",
          "type": "uint256"
        },
        {
          "internalType": "uint256",
          "name": "fee",
          "type": "uint256"
        },
        {
          "internalType": "uint256",
          "name": "timeStamp",
          "type": "uint256"
        }
      ],
      "payable": false,
      "stateMutability": "view",
      "type": "function"
    },
    {
      "constant": false,
      "inputs": [
        {
          "internalType": "uint256",
          "name": "amount",
          "type": "uint256"
        }
      ],
      "name": "addBankBalance",
      "outputs": [],
      "payable": false,
      "stateMutability": "nonpayable",
      "type": "function"
    },
    {
      "constant": false,
      "inputs": [
        {
          "internalType": "string",
          "name": "code",
          "type": "string"
        },
        {
          "internalType": "string",
          "name": "accountNumber",
          "type": "string"
        },
        {
          "internalType": "uint256",
          "name": "amount",
          "type": "uint256"
        },
        {
          "internalType": "uint256",
          "name": "timeStamp",
          "type": "uint256"
        }
      ],
      "name": "addAccountBalance",
      "outputs": [],
      "payable": false,
      "stateMutability": "nonpayable",
      "type": "function"
    },
    {
      "constant": false,
      "inputs": [
        {
          "internalType": "string",
          "name": "accountNumber",
          "type": "string"
        },
        {
          "internalType": "address",
          "name": "newAddress",
          "type": "address"
        }
      ],
      "name": "changeAddressOfAccount",
      "outputs": [],
      "payable": false,
      "stateMutability": "nonpayable",
      "type": "function"
    },
    {
      "constant": false,
      "inputs": [
        {
          "internalType": "string",
          "name": "accountNumber",
          "type": "string"
        },
        {
          "internalType": "string",
          "name": "ownerPhoneNumber",
          "type": "string"
        },
        {
          "internalType": "address",
          "name": "accountAddress",
          "type": "address"
        }
      ],
      "name": "createAccount",
      "outputs": [],
      "payable": false,
      "stateMutability": "nonpayable",
      "type": "function"
    },
    {
      "constant": false,
      "inputs": [
        {
          "internalType": "string",
          "name": "code",
          "type": "string"
        },
        {
          "internalType": "string",
          "name": "fromAccount",
          "type": "string"
        },
        {
          "internalType": "string",
          "name": "toAccount",
          "type": "string"
        },
        {
          "internalType": "uint256",
          "name": "fee",
          "type": "uint256"
        },
        {
          "internalType": "uint256",
          "name": "amount",
          "type": "uint256"
        },
        {
          "internalType": "uint256",
          "name": "timeStamp",
          "type": "uint256"
        }
      ],
      "name": "transfer",
      "outputs": [],
      "payable": false,
      "stateMutability": "nonpayable",
      "type": "function"
    }
  ],
  "bytecode": "0x608060405234801561001057600080fd5b50604051611e2e380380611e2e8339818101604052602081101561003357600080fd5b8101908080519060200190929190505050336000806101000a81548173ffffffffffffffffffffffffffffffffffffffff021916908373ffffffffffffffffffffffffffffffffffffffff1602179055508060018190555050611d938061009b6000396000f3fe608060405234801561001057600080fd5b50600436106100935760003560e01c806341d3d0ab1161006657806341d3d0ab146103e057806347bccce0146105525780634d36058e1461072c5780638da5cb5b14610892578063d5e1594f146108dc57610093565b8063022236f41461009857806328657aa5146102b95780633ed5cf7e146102d757806341bc362814610305575b600080fd5b610151600480360360208110156100ae57600080fd5b81019080803590602001906401000000008111156100cb57600080fd5b8201836020820111156100dd57600080fd5b803590602001918460018302840111640100000000831117156100ff57600080fd5b91908080601f016020809104026020016040519081016040528093929190818152602001838380828437600081840152601f19601f820116905080830192505050505050509192919290505050610ae3565b6040518080602001806020018060200187815260200186815260200185815260200184810384528a818151815260200191508051906020019080838360005b838110156101ab578082015181840152602081019050610190565b50505050905090810190601f1680156101d85780820380516001836020036101000a031916815260200191505b50848103835289818151815260200191508051906020019080838360005b838110156102115780820151818401526020810190506101f6565b50505050905090810190601f16801561023e5780820380516001836020036101000a031916815260200191505b50848103825288818151815260200191508051906020019080838360005b8381101561027757808201518184015260208101905061025c565b50505050905090810190601f1680156102a45780820380516001836020036101000a031916815260200191505b50995050505050505050505060405180910390f35b6102c1610cfd565b6040518082815260200191505060405180910390f35b610303600480360360208110156102ed57600080fd5b8101908080359060200190929190505050610d03565b005b6103de6004803603604081101561031b57600080fd5b810190808035906020019064010000000081111561033857600080fd5b82018360208201111561034a57600080fd5b8035906020019184600183028401116401000000008311171561036c57600080fd5b91908080601f016020809104026020016040519081016040528093929190818152602001838380828437600081840152601f19601f820116905080830192505050505050509192919290803573ffffffffffffffffffffffffffffffffffffffff169060200190929190505050610d6f565b005b610550600480360360608110156103f657600080fd5b810190808035906020019064010000000081111561041357600080fd5b82018360208201111561042557600080fd5b8035906020019184600183028401116401000000008311171561044757600080fd5b91908080601f016020809104026020016040519081016040528093929190818152602001838380828437600081840152601f19601f820116905080830192505050505050509192919290803590602001906401000000008111156104aa57600080fd5b8201836020820111156104bc57600080fd5b803590602001918460018302840111640100000000831117156104de57600080fd5b91908080601f016020809104026020016040519081016040528093929190818152602001838380828437600081840152601f19601f820116905080830192505050505050509192919290803573ffffffffffffffffffffffffffffffffffffffff169060200190929190505050610f9a565b005b61060b6004803603602081101561056857600080fd5b810190808035906020019064010000000081111561058557600080fd5b82018360208201111561059757600080fd5b803590602001918460018302840111640100000000831117156105b957600080fd5b91908080601f016020809104026020016040519081016040528093929190818152602001838380828437600081840152601f19601f8201169050808301925050505050505091929192905050506111cb565b6040518080602001806020018581526020018473ffffffffffffffffffffffffffffffffffffffff1673ffffffffffffffffffffffffffffffffffffffff168152602001838103835287818151815260200191508051906020019080838360005b8381101561068757808201518184015260208101905061066c565b50505050905090810190601f1680156106b45780820380516001836020036101000a031916815260200191505b50838103825286818151815260200191508051906020019080838360005b838110156106ed5780820151818401526020810190506106d2565b50505050905090810190601f16801561071a5780820380516001836020036101000a031916815260200191505b50965050505050505060405180910390f35b6108906004803603608081101561074257600080fd5b810190808035906020019064010000000081111561075f57600080fd5b82018360208201111561077157600080fd5b8035906020019184600183028401116401000000008311171561079357600080fd5b91908080601f016020809104026020016040519081016040528093929190818152602001838380828437600081840152601f19601f820116905080830192505050505050509192919290803590602001906401000000008111156107f657600080fd5b82018360208201111561080857600080fd5b8035906020019184600183028401116401000000008311171561082a57600080fd5b91908080601f016020809104026020016040519081016040528093929190818152602001838380828437600081840152601f19601f8201169050808301925050505050505091929192908035906020019092919080359060200190929190505050611361565b005b61089a61169c565b604051808273ffffffffffffffffffffffffffffffffffffffff1673ffffffffffffffffffffffffffffffffffffffff16815260200191505060405180910390f35b610ae1600480360360c08110156108f257600080fd5b810190808035906020019064010000000081111561090f57600080fd5b82018360208201111561092157600080fd5b8035906020019184600183028401116401000000008311171561094357600080fd5b91908080601f016020809104026020016040519081016040528093929190818152602001838380828437600081840152601f19601f820116905080830192505050505050509192919290803590602001906401000000008111156109a657600080fd5b8201836020820111156109b857600080fd5b803590602001918460018302840111640100000000831117156109da57600080fd5b91908080601f016020809104026020016040519081016040528093929190818152602001838380828437600081840152601f19601f82011690508083019250505050505050919291929080359060200190640100000000811115610a3d57600080fd5b820183602082011115610a4f57600080fd5b80359060200191846001830284011164010000000083111715610a7157600080fd5b91908080601f016020809104026020016040519081016040528093929190818152602001838380828437600081840152601f19601f8201169050808301925050505050505091929192908035906020019092919080359060200190929190803590602001909291905050506116c1565b005b600381805160208101820180518482526020830160208501208183528095505050505050600091509050806000018054600181600116156101000203166002900480601f016020809104026020016040519081016040528092919081815260200182805460018160011615610100020316600290048015610ba55780601f10610b7a57610100808354040283529160200191610ba5565b820191906000526020600020905b815481529060010190602001808311610b8857829003601f168201915b505050505090806001018054600181600116156101000203166002900480601f016020809104026020016040519081016040528092919081815260200182805460018160011615610100020316600290048015610c435780601f10610c1857610100808354040283529160200191610c43565b820191906000526020600020905b815481529060010190602001808311610c2657829003601f168201915b505050505090806002018054600181600116156101000203166002900480601f016020809104026020016040519081016040528092919081815260200182805460018160011615610100020316600290048015610ce15780601f10610cb657610100808354040283529160200191610ce1565b820191906000526020600020905b815481529060010190602001808311610cc457829003601f168201915b5050505050908060030154908060040154908060050154905086565b60015481565b6000809054906101000a900473ffffffffffffffffffffffffffffffffffffffff1673ffffffffffffffffffffffffffffffffffffffff163373ffffffffffffffffffffffffffffffffffffffff1614610d5c57600080fd5b8060016000828254019250508190555050565b6000809054906101000a900473ffffffffffffffffffffffffffffffffffffffff1673ffffffffffffffffffffffffffffffffffffffff163373ffffffffffffffffffffffffffffffffffffffff1614610dc857600080fd5b8160606040518060400160405280600c81526020017f3030303030303030303030300000000000000000000000000000000000000000815250905081805190602001206002836040518082805190602001908083835b60208310610e415780518252602082019150602081019050602083039250610e1e565b6001836020036101000a03801982511681845116808217855250505050505090500191505090815260200160405180910390206000016040518082805460018160011615610100020316600290048015610ed25780601f10610eb0576101008083540402835291820191610ed2565b820191906000526020600020905b815481529060010190602001808311610ebe575b5050915050604051809103902014610ee957600080fd5b826002856040518082805190602001908083835b60208310610f205780518252602082019150602081019050602083039250610efd565b6001836020036101000a038019825116818451168082178552505050505050905001915050908152602001604051809103902060030160006101000a81548173ffffffffffffffffffffffffffffffffffffffff021916908373ffffffffffffffffffffffffffffffffffffffff16021790555050505050565b82606060405180602001604052806000815250905080805190602001206002836040518082805190602001908083835b60208310610fed5780518252602082019150602081019050602083039250610fca565b6001836020036101000a0380198251168184511680821785525050505050509050019150509081526020016040518091039020600001604051808280546001816001161561010002031660029004801561107e5780601f1061105c57610100808354040283529182019161107e565b820191906000526020600020905b81548152906001019060200180831161106a575b505091505060405180910390201461109557600080fd5b6040518060800160405280868152602001858152602001600081526020018473ffffffffffffffffffffffffffffffffffffffff168152506002866040518082805190602001908083835b6020831061110357805182526020820191506020810190506020830392506110e0565b6001836020036101000a03801982511681845116808217855250505050505090500191505090815260200160405180910390206000820151816000019080519060200190611152929190611cb9565b50602082015181600101908051906020019061116f929190611cb9565b506040820151816002015560608201518160030160006101000a81548173ffffffffffffffffffffffffffffffffffffffff021916908373ffffffffffffffffffffffffffffffffffffffff1602179055509050505050505050565b600281805160208101820180518482526020830160208501208183528095505050505050600091509050806000018054600181600116156101000203166002900480601f01602080910402602001604051908101604052809291908181526020018280546001816001161561010002031660029004801561128d5780601f106112625761010080835404028352916020019161128d565b820191906000526020600020905b81548152906001019060200180831161127057829003601f168201915b505050505090806001018054600181600116156101000203166002900480601f01602080910402602001604051908101604052809291908181526020018280546001816001161561010002031660029004801561132b5780601f106113005761010080835404028352916020019161132b565b820191906000526020600020905b81548152906001019060200180831161130e57829003601f168201915b5050505050908060020154908060030160009054906101000a900473ffffffffffffffffffffffffffffffffffffffff16905084565b6000809054906101000a900473ffffffffffffffffffffffffffffffffffffffff1673ffffffffffffffffffffffffffffffffffffffff163373ffffffffffffffffffffffffffffffffffffffff16146113ba57600080fd5b818060015410156113ca57600080fd5b84606060405180602001604052806000815250905080805190602001206003836040518082805190602001908083835b6020831061141d57805182526020820191506020810190506020830392506113fa565b6001836020036101000a038019825116818451168082178552505050505050905001915050908152602001604051809103902060000160405180828054600181600116156101000203166002900480156114ae5780601f1061148c5761010080835404028352918201916114ae565b820191906000526020600020905b81548152906001019060200180831161149a575b50509150506040518091039020146114c557600080fd5b84600160008282540392505081905550846002876040518082805190602001908083835b6020831061150c57805182526020820191506020810190506020830392506114e9565b6001836020036101000a0380198251168184511680821785525050505050509050019150509081526020016040518091039020600201600082825401925050819055506040518060c001604052808881526020016040518060400160405280600c81526020017f3030303030303030303030300000000000000000000000000000000000000000815250815260200187815260200186815260200160008152602001858152506003886040518082805190602001908083835b602083106115e857805182526020820191506020810190506020830392506115c5565b6001836020036101000a03801982511681845116808217855250505050505090500191505090815260200160405180910390206000820151816000019080519060200190611637929190611cb9565b506020820151816001019080519060200190611654929190611cb9565b506040820151816002019080519060200190611671929190611cb9565b50606082015181600301556080820151816004015560a0820151816005015590505050505050505050565b6000809054906101000a900473ffffffffffffffffffffffffffffffffffffffff1681565b8482843373ffffffffffffffffffffffffffffffffffffffff166002846040518082805190602001908083835b6020831061171157805182526020820191506020810190506020830392506116ee565b6001836020036101000a038019825116818451168082178552505050505050905001915050908152602001604051809103902060030160009054906101000a900473ffffffffffffffffffffffffffffffffffffffff1673ffffffffffffffffffffffffffffffffffffffff161480156117f957508082016002846040518082805190602001908083835b602083106117bf578051825260208201915060208101905060208303925061179c565b6001836020036101000a03801982511681845116808217855250505050505090500191505090815260200160405180910390206002015410155b61180257600080fd5b8660606040518060400160405280600c81526020017f3030303030303030303030300000000000000000000000000000000000000000815250905081805190602001206002836040518082805190602001908083835b6020831061187b5780518252602082019150602081019050602083039250611858565b6001836020036101000a0380198251168184511680821785525050505050509050019150509081526020016040518091039020600001604051808280546001816001161561010002031660029004801561190c5780601f106118ea57610100808354040283529182019161190c565b820191906000526020600020905b8154815290600101906020018083116118f8575b505091505060405180910390201461192357600080fd5b8a606060405180602001604052806000815250905080805190602001206003836040518082805190602001908083835b602083106119765780518252602082019150602081019050602083039250611953565b6001836020036101000a03801982511681845116808217855250505050505090500191505090815260200160405180910390206000016040518082805460018160011615610100020316600290048015611a075780601f106119e5576101008083540402835291820191611a07565b820191906000526020600020905b8154815290600101906020018083116119f3575b5050915050604051809103902014611a1e57600080fd5b8860028d6040518082805190602001908083835b60208310611a555780518252602082019150602081019050602083039250611a32565b6001836020036101000a0380198251168184511680821785525050505050509050019150509081526020016040518091039020600201600082825403925050819055508860028c6040518082805190602001908083835b60208310611acf5780518252602082019150602081019050602083039250611aac565b6001836020036101000a0380198251168184511680821785525050505050509050019150509081526020016040518091039020600201600082825401925050819055508960028d6040518082805190602001908083835b60208310611b495780518252602082019150602081019050602083039250611b26565b6001836020036101000a038019825116818451168082178552505050505050905001915050908152602001604051809103902060020160008282540392505081905550896001600082825401925050819055506040518060c001604052808e81526020018d81526020018c81526020018a81526020018b81526020018981525060038e6040518082805190602001908083835b60208310611bff5780518252602082019150602081019050602083039250611bdc565b6001836020036101000a03801982511681845116808217855250505050505090500191505090815260200160405180910390206000820151816000019080519060200190611c4e929190611cb9565b506020820151816001019080519060200190611c6b929190611cb9565b506040820151816002019080519060200190611c88929190611cb9565b50606082015181600301556080820151816004015560a0820151816005015590505050505050505050505050505050565b828054600181600116156101000203166002900490600052602060002090601f016020900481019282601f10611cfa57805160ff1916838001178555611d28565b82800160010185558215611d28579182015b82811115611d27578251825591602001919060010190611d0c565b5b509050611d359190611d39565b5090565b611d5b91905b80821115611d57576000816000905550600101611d3f565b5090565b9056fea265627a7a723158200976420a799397be117cbac64d570085cd8278077f80acbfd724d4fc8470379964736f6c63430005100032",
  "source": "pragma solidity ^0.5.9;\n\ncontract BankTransfer {\n    // owner of this contract\n    address public owner;\n\n    // bank balance\n    uint256 public bankBalance;\n\n    // bank account info\n    struct BankAccount {\n        string accountNumber;\n        string ownerPhoneNumber;\n        uint256 balance;\n        address accountAddress;\n    }\n\n    //struct data of a transaction\n    struct Transaction {\n        string code;\n        string fromAccountNumber;\n        string toAccountNumber;\n        uint256 amount;\n        uint fee;\n        uint timeStamp;\n    }\n\n    // mapping from account number to account\n    mapping(string => BankAccount) public bankAccounts;\n\n    // mapping from code to transaction\n    mapping(string => Transaction) public transactions;\n    \n    constructor(uint256 _bankBalance) public {\n        owner = msg.sender;\n        bankBalance = _bankBalance;\n    }\n\n// owner functions\n    function addBankBalance(uint256 amount)\n    public\n    onlyOwner()\n    {\n        bankBalance += amount;\n    }\n\n    function addAccountBalance(\n        string memory code,\n        string memory accountNumber,\n        uint amount,\n        uint timeStamp\n    )\n    public\n    onlyOwner()\n    bankBalanceValidate(amount)\n    transactionCodeNotExists(code)\n    {\n        bankBalance -= amount;\n        bankAccounts[accountNumber].balance += amount;\n\n        //create transaction\n        transactions[code] = Transaction({\n            code: code,\n            fromAccountNumber: \"000000000000\",\n            toAccountNumber: accountNumber,\n            amount: amount,\n            fee: 0,\n            timeStamp: timeStamp\n        });\n    }\n\n    function changeAddressOfAccount(string memory accountNumber, address newAddress)\n    public\n    onlyOwner()\n    accountExists(accountNumber)\n    {\n        bankAccounts[accountNumber].accountAddress = newAddress;\n    }\n// user functions\n    function createAccount(\n        string memory accountNumber,\n        string memory ownerPhoneNumber,\n        address accountAddress\n    )\n    accountNotExists(accountNumber)\n    public\n    {\n        bankAccounts[accountNumber] = BankAccount({\n            accountNumber: accountNumber,\n            ownerPhoneNumber: ownerPhoneNumber,\n            balance: 0,\n            accountAddress: accountAddress\n        });\n    }\n    \n    function transfer(\n        string memory code,\n        string memory fromAccount, \n        string memory toAccount,\n        uint fee, \n        uint amount, \n        uint timeStamp\n    ) \n    public \n    accountValidateTransfer(fromAccount, amount, fee)\n    accountExists(toAccount)\n    transactionCodeNotExists(code)\n    {\n        bankAccounts[fromAccount].balance -= amount;\n        bankAccounts[toAccount].balance += amount;\n\n        bankAccounts[fromAccount].balance -= fee;\n        bankBalance += fee;\n\n        //create transaction\n        transactions[code] = Transaction({\n            code: code,\n            fromAccountNumber: fromAccount,\n            toAccountNumber: toAccount,\n            amount: amount,\n            fee: fee,\n            timeStamp: timeStamp\n        });\n    }    \n\n// modifiers\n\n    // modifier that use to require caller is owner\n    modifier onlyOwner() \n    {\n        require(msg.sender == owner);\n        _;\n    }\n\n    // modifier that use to make sure account not exists\n    modifier accountNotExists(string memory accountNumber) \n    {\n        string memory empty = \"\";\n        require(\n            keccak256(bytes(bankAccounts[accountNumber].accountNumber)) \n            == keccak256(bytes(empty))\n        );\n        _;\n    }\n\n    // modifier that use to make sure account exists\n    modifier accountExists(string memory accountNumber) \n    {\n        string memory moneyBaseAccount = \"000000000000\";\n\n        require(\n            keccak256(bytes(bankAccounts[accountNumber].accountNumber)) \n            == keccak256(bytes(accountNumber))\n        );\n        _;\n    }\n\n    // modifier that use to make sure account have right secure hash\n    // and valid amount for transfer \n    modifier accountValidateTransfer(string memory accountNumber, uint amount, uint fee) \n    {\n        require(bankAccounts[accountNumber].accountAddress == msg.sender\n        && bankAccounts[accountNumber].balance >= amount + fee);\n        _;\n    }\n\n    // modifier that make sure bank balance have enough money\n    // to add account balance\n    modifier bankBalanceValidate(uint amount) \n    {\n        require(bankBalance >= amount);\n        _;\n    }\n\n    // modifier that make sure transaction \n    // with code have not exist\n    modifier transactionCodeNotExists(string memory code) \n    {\n        string memory empty = \"\";\n        require(\n            keccak256(bytes(transactions[code].code)) \n            == keccak256(bytes(empty))\n        );\n        _;\n    }\n\n}\n",
  "sourcePath": "/home/hieuphan/repositories/BC_bank_transfer/truffle_smart_contract/contracts/bank_account.sol",
  "compiler": {
    "name": "solc",
    "version": "0.5.16+commit.9c3226ce.Emscripten.clang"
  },
  "schemaVersion": "3.2.3",
  "updatedAt": "2020-10-22T10:49:25.218Z",
  "devdoc": {
    "methods": {}
  },
  "userdoc": {
    "methods": {}
  }
}